:100000000C942A000C9452070C9447000C9447005F
:100010000C9447000C9447000C9447000C94470044
:100020000C9447000C9447000C9447000C94470034
:100030000C9447000C944C060C9447000C94470019
:100040000C9447000C9447000C9447000C94470014
:100050000C94470011241FBECFE5D8E0DEBFCDBF12
:1000600010E0A0E6B0E0E0EAF2E202C005900D92F6
:10007000A43DB107D9F710E0A4EDB0E001C01D9296
:10008000A63DB107E1F70E9400110C944E110C94AB
:100090000000EF92FF920F931F937B018C0120E0F1
:1000A00030E040E05FE40E94490388238CF0C801FF
:1000B000B70120E030E040E05FE40E94C1010E940F
:1000C000A9039B01AC01205030404040504806C07D
:1000D000C801B7010E94A9039B01AC01B901CA0183
:1000E0001F910F91FF90EF900895A0E0B0E0EBE733
:1000F000F0E00C941711DC012B01FA019C91923075
:1001000008F439C1EB018881823008F433C194309E
:1001100069F4843009F02FC111969C91119789815F
:10012000981709F428C1A7E6B0E025C1843009F486
:1001300021C18230A9F4923009F01DC19A01AD01AC
:1001400088E0EA010990AE01E90109929E0181501F
:10015000C1F7E201898111969C918923818308C1AD
:10016000923009F407C112962D903C901397EB0141
:100170008A819B811496AD90BD90CD90DC901797AD
:10018000EC80FD800E811F819101281B390BB90184
:1001900037FF04C066277727621B730B6032710537
:1001A0000CF061C0121613066CF537014801062EDB
:1001B00004C096948794779467940A94D2F721E0C8
:1001C00030E040E050E004C0220F331F441F551FB1
:1001D0006A95D2F721503040404050402E213F21B7
:1001E00040235123211531054105510521F021E01E
:1001F00030E040E050E079018A01E628F72808293C
:1002000019293CC0232BD1F1260E371E350146019A
:10021000062E04C096948794779467940A94D2F734
:1002200021E030E040E050E004C0220F331F441FC3
:10023000551F6A95D2F721503040404050402A2146
:100240003B214C215D21211531054105510521F04E
:1002500021E030E040E050E059016A01A628B728CB
:10026000C828D9280BC0821593052CF01C01AA249C
:10027000BB24650103C0EE24FF24870111969C91E5
:10028000D20111968C91981709F445C0992339F041
:10029000A80197012A193B094C095D0906C0A6016E
:1002A00095012E193F09400B510B57FD08C01182D3
:1002B0003382228224833583468357831DC081E0A5
:1002C00081833382228288279927DC01821B930B4A
:1002D000A40BB50B84839583A683B7830DC0220F2F
:1002E000331F441F551F24833583468357838281E0
:1002F000938101979383828324813581468157813D
:10030000DA01C9010197A109B1098F5F9F4FAF4F72
:10031000BF4328F30BC0918333822282EA0CFB1C7B
:100320000C1D1D1DE482F5820683178383E0808304
:10033000248135814681578157FF1AC0C901AA27F8
:1003400097FDA095BA2F81709070A070B0705695EF
:10035000479537952795822B932BA42BB52B848318
:100360009583A683B7838281938101969383828349
:10037000DF0101C0D201CD01CDB7DEB7E2E10C94BF
:100380003311A0E2B0E0E7ECF1E00C9423116983B3
:100390007A838B839C832D833E834F835887E9E048
:1003A000EE2EF12CEC0EFD1ECE010196B7010E943F
:1003B000D2048E010F5E1F4FCE010596B8010E9438
:1003C000D2048A8991E089278A8BC701B801AE01DE
:1003D000475E5F4F0E9475000E94FD03A096E6E015
:1003E0000C943F11A0E2B0E0E8EFF1E00C9423118F
:1003F00069837A838B839C832D833E834F835887C5
:10040000F9E0EF2EF12CEC0EFD1ECE010196B701A6
:100410000E94D2048E010F5E1F4FCE010596B801D7
:100420000E94D204C701B801AE01475E5F4F0E942F
:1004300075000E94FD03A096E6E00C943F11A0E237
:10044000B0E0E5E2F2E00C94171169837A838B83C4
:100450009C832D833E834F835887CE010196BE0136
:10046000675F7F4F0E94D204CE010596BE016F5E8A
:100470007F4F0E94D2049985923088F0898982301A
:10048000C8F0943019F4823051F404C0843029F457
:10049000923081F487E690E0C6C0923049F420E0C3
:1004A0009A858A89981321E02A87CE010996BBC0D4
:1004B000823049F420E09A858A89981321E02A8BBA
:1004C000CE014196B0C02D843E844F8458886D88FB
:1004D0007E888F88988CEE24FF248701AA24BB2471
:1004E000650140E050E060E070E0E0E0F0E0C10174
:1004F00081709070892BE9F0E60CF71C081D191D1E
:100500009A01AB012A0D3B1D4C1D5D1D80E090E062
:10051000A0E0B0E0E614F7040805190520F481E036
:1005200090E0A0E0B0E0BA01A901480F591F6A1F8E
:100530007B1FAA0CBB1CCC1CDD1C97FE08C081E0F5
:1005400090E0A0E0B0E0A82AB92ACA2ADB2A3196B6
:10055000E032F10549F0660C771C881C991C569412
:10056000479437942794C3CFFA85EA892B893C892D
:100570008B859C85280F391F2E5F3F4F17C0CA01FE
:1005800081709070892B61F016950795F794E79428
:1005900080E090E0A0E0B0E8E82AF92A0A2B1B2BC3
:1005A00076956795579547952F5F3F4F77FDE7CF36
:1005B0000CC0440F551F661F771F17FD4160EE0CDE
:1005C000FF1C001F111F21503040403090E05907A0
:1005D00090E0690790E4790760F32B8F3C8FDB0193
:1005E000CA018F779070A070B07080349105A1051A
:1005F000B10561F447FD0AC0E114F10401051105DC
:1006000029F0405C5F4F6F4F7F4F40781A8EFE1786
:1006100011F081E08A8F4D8F5E8F6F8F78A383E01A
:10062000898FCE0149960E94FD03A096E2E10C94C9
:100630003311A8E1B0E0EFE1F3E00C9423116983FA
:100640007A838B839C832D833E834F83588789E0F5
:10065000E82EF12CEC0EFD1ECE010196B7010E9492
:10066000D2048E010F5E1F4FCE010596B8010E9485
:10067000D2048985823040F08989823028F0C70110
:10068000B8010E944A0501C08FEF6896E6E00C941D
:100690003F11A8E1B0E0EFE4F3E00C94231169838B
:1006A0007A838B839C832D833E834F83588789E095
:1006B000E82EF12CEC0EFD1ECE010196B7010E9432
:1006C000D2048E010F5E1F4FCE010596B8010E9425
:1006D000D2048985823040F08989823028F0C701B0
:1006E000B8010E944A0501C08FEF6896E6E00C94BD
:1006F0003F11A8E1B0E0EFE7F3E00C942311698328
:100700007A838B839C832D833E834F83588789E034
:10071000E82EF12CEC0EFD1ECE010196B7010E94D1
:10072000D2048E010F5E1F4FCE010596B8010E94C4
:10073000D2048985823040F08989823028F0C7014F
:10074000B8010E944A0501C081E06896E6E00C9479
:100750003F11ACE0B0E0EFEAF3E00C9427116983BD
:100760007A838B839C83CE010196BE016B5F7F4FA2
:100770000E94D2048D81823061F1823050F1843048
:1007800021F48E81882351F12EC02F81388537FDC9
:1007900020C06E812F3131051CF06623F9F023C093
:1007A0008EE190E0821B930B29853A854B855C8511
:1007B00004C056954795379527958A95D2F76623B5
:1007C000B1F050954095309521953F4F4F4F5F4F79
:1007D0000EC020E030E040E050E009C02FEF3FEFD6
:1007E0004FEF5FE704C020E030E040E050E8B9019F
:1007F000CA012C96E2E00C944311DF92EF92FF9233
:100800000F931F93FC01E480F58006811781D1804E
:100810008081823048F480E090E0A0E1B0E0E82AF6
:10082000F92A0A2B1B2BA5C0843009F49FC0823003
:1008300021F4EE24FF24870105C0E114F104010531
:10084000110519F4E0E0F0E096C0628173819FEF3A
:10085000623879070CF05BC022E83FEF261B370BAC
:100860002A3131052CF020E030E040E050E02AC091
:10087000B801A701022E04C0769567955795479554
:100880000A94D2F781E090E0A0E0B0E004C0880FC5
:10089000991FAA1FBB1F2A95D2F70197A109B10979
:1008A0008E219F21A023B1230097A105B10521F03E
:1008B00081E090E0A0E0B0E09A01AB01282B392B59
:1008C0004A2B5B2BDA01C9018F779070A070B07052
:1008D00080349105A105B10539F427FF09C0205CDA
:1008E0003F4F4F4F5F4F04C0215C3F4F4F4F5F4F13
:1008F000E0E0F0E02030A0E03A07A0E04A07A0E402
:100900005A0710F0E1E0F0E079018A0127C0603871
:10091000710564F5FB01E158FF4FD801C7018F77DE
:100920009070A070B07080349105A105B10539F4C4
:10093000E7FE0DC080E490E0A0E0B0E004C08FE3EB
:1009400090E0A0E0B0E0E80EF91E0A1F1B1F17FFA1
:1009500005C016950795F794E794319687E01695AC
:100960000795F794E7948A95D1F705C0EE24FF2404
:100970008701EFEFF0E06E2F679566276795902F60
:100980009F77D794DD24D7948E2F8695492F462BB9
:10099000582F5D29B701CA011F910F91FF90EF9069
:1009A000DF900895FC01DB01408151812281622F9B
:1009B0006F7770E0221F2227221F9381892F880FD3
:1009C000822B282F30E0991F9927991F11969C930D
:1009D000119721153105A9F54115510561057105DD
:1009E00011F482E037C082E89FEF13969C938E93B8
:1009F00012979A01AB0167E0220F331F441F551F66
:100A00006A95D1F783E08C930DC0220F331F441FEA
:100A1000551F12968D919C911397019713969C9355
:100A20008E931297203080E0380780E0480780E4FA
:100A3000580758F314962D933D934D935C93179755
:100A400008952F3F310579F4411551056105710570
:100A500019F484E08C93089564FF03C081E08C93C3
:100A600012C01C9210C02F57304013963C932E9307
:100A7000129783E08C9387E0440F551F661F771F02
:100A80008A95D1F7706414964D935D936D937C9322
:100A9000179708951F93DC01FB019C91923008F495
:100AA00047C08081823008F443C0943051F41196DD
:100AB0001C91843099F58181682F70E0611B710968
:100AC0003FC0843021F0923031F48230B9F181811D
:100AD000882389F12DC011961C9111978230F1F075
:100AE00081811817D9F412962D913C911397828128
:100AF00093818217930794F028173907BCF0149656
:100B00008D919D910D90BC91A02D248135814681C0
:100B10005781281739074A075B0718F4112341F05A
:100B20000AC082179307A407B50740F4112319F0F0
:100B300061E070E005C06FEF7FEF02C060E070E041
:100B4000CB011F910895DF93CF930F92CDB7DEB7FE
:100B5000198289818068898389818F7B89838981D2
:100B60008F7D898389818F7E89838981877F89832E
:100B700089818B7F8983898182608983898184606F
:100B80008983E0E4F0E089818083E9E2F0E083E3B7
:100B90008083AAE2B0E0EAE2F0E0808180688C9392
:100BA000AAE2B0E0EAE2F0E0808180618C93AAE200
:100BB000B0E0EAE2F0E0808188608C930F90CF9102
:100BC000DF910895DF93CF930F92CDB7DEB789837E
:100BD000EBE2F0E08081829586958770882F90E027
:100BE000817090700097A1F3ECE2F0E0898180833E
:100BF0000F90CF91DF910895DF93CF93CDB7DEB7FC
:100C0000EBE2F0E080818823DCF7ECE2F0E0808129
:100C1000CF91DF910895DF93CF9300D000D0CDB76F
:100C2000DEB79C838B831A8219820FC02B813C8193
:100C300089819A81F901E80FF91F80810E94E205FC
:100C400089819A8101969A8389832B813C8189814C
:100C50009A81F901E80FF91F8081882339F70F90F5
:100C60000F900F900F90CF91DF910895DF93CF9366
:100C700000D0CDB7DEB79A83898389819A810097A6
:100C800031F089819A819093D5008093D4000F90A0
:100C90000F90CF91DF9108951F920F920FB60F9290
:100CA00011242F933F934F935F936F937F938F9371
:100CB0009F93AF93BF93EF93FF93DF93CF93CDB702
:100CC000DEB78091D4009091D500009729F0E09193
:100CD000D400F091D5000995CF91DF91FF91EF916C
:100CE000BF91AF919F918F917F916F915F914F9144
:100CF0003F912F910F900FBE0F901F901895DF938B
:100D0000CF93CDB7DEB7EAE3F0E08FEF8083E7E380
:100D1000F0E01082E4E3F0E08FEF8083E1E3F0E0C5
:100D20008FEF8083EBE3F0E08FEF8083E8E3F0E088
:100D30001082E5E3F0E01082E2E3F0E08FEF8083E1
:100D4000CF91DF910895DF93CF93CDB7DEB7AFE5B5
:100D5000B0E0EFE5F0E0808180688C93CF91DF9187
:100D60000895DF93CF93CDB7DEB7AFE5B0E0EFE501
:100D7000F0E080818F778C93CF91DF910895DF939E
:100D8000CF93CDB7DEB7A5E5B0E0E5E5F0E0808133
:100D90008E7F8C93A5E5B0E0E5E5F0E080818D7F66
:100DA0008C93CF91DF910895DF93CF93CDB7DEB7CA
:100DB000A5E5B0E0E5E5F0E080818E7F8C93A5E5C8
:100DC000B0E0E5E5F0E080818D7F8C93CF91DF91FD
:100DD0000895DF93CF93CDB7DEB7A5E5B0E0E5E5A5
:100DE000F0E080818E7F8C93A5E5B0E0E5E5F0E052
:100DF000808182608C93CF91DF910895DF93CF93B0
:100E0000CDB7DEB7ABE5B0E0EBE5F0E08081806424
:100E10008C93CF91DF910895DF93CF93CDB7DEB759
:100E2000ABE5B0E0EBE5F0E0808180688C93CF919A
:100E3000DF910895DF93CF93CDB7DEB7ABE5B0E098
:100E4000EBE5F0E0808180628C93CF91DF91089593
:100E5000DF93CF93CDB7DEB7ABE5B0E0EBE5F0E0E5
:100E600080818F7B8C93CF91DF910895DF93CF9317
:100E7000CDB7DEB7ABE5B0E0EBE5F0E080818F7792
:100E80008C93CF91DF910895DF93CF93CDB7DEB7E9
:100E9000ABE5B0E0EBE5F0E080818F7D8C93CF9106
:100EA000DF9108951F920F920FB60F921124DF93D6
:100EB000CF93CDB7DEB7CF91DF910F900FBE0F90DC
:100EC0001F901895DF93CF93CDB7DEB727970FB656
:100ED000F894DEBF0FBECDBF89836A834B838B81BD
:100EE000882309F054C08981282F30E03F832E8366
:100EF0008E819F818230910501F12E813F812330C7
:100F0000310581F18E819F818130910509F0B1C059
:100F1000A7E3B0E0E7E3F0E08081482F8A81282F43
:100F200030E081E090E0022E02C0880F991F0A9401
:100F3000E2F7809584238C939CC0A4E3B0E0E4E3C3
:100F4000F0E08081482F8A81282F30E081E090E016
:100F5000022E02C0880F991F0A94E2F7809584231D
:100F60008C9387C0A1E3B0E0E1E3F0E08081482FFB
:100F70008A81282F30E081E090E0022E02C0880FA5
:100F8000991F0A94E2F7809584238C9372C08B8119
:100F9000813009F06EC08981282F30E03D832C8399
:100FA0008C819D818130910549F12C813D812230D8
:100FB00031052CF48C819D81009761F05AC02C8101
:100FC0003D812230310571F18C819D818330910505
:100FD000E9F14FC0AAE3B0E0EAE3F0E08081482FF6
:100FE0008A81282F30E081E090E0022E02C0880F35
:100FF000991F0A94E2F7842B8C933BC0A7E3B0E0DF
:10100000E7E3F0E08081482F8A81282F30E081E0FB
:1010100090E0022E02C0880F991F0A94E2F7842BF9
:101020008C9327C0A4E3B0E0E4E3F0E08081482F94
:101030008A81282F30E081E090E0022E02C0880FE4
:10104000991F0A94E2F7842B8C9313C0A1E3B0E0BC
:10105000E1E3F0E08081482F8A81282F30E081E0B1
:1010600090E0022E02C0880F991F0A94E2F7842BA9
:101070008C9327960FB6F894DEBF0FBECDBFCF91ED
:10108000DF910895DF93CF93CDB7DEB727970FB6E3
:10109000F894DEBF0FBECDBF89836A834B838B81FB
:1010A000813009F06FC08981282F30E03F832E8383
:1010B0008E819F818130910549F12E813F812230BF
:1010C00031052CF48E819F81009761F0D2C02E8172
:1010D0003F812230310571F18E819F8183309105EE
:1010E000E9F1C7C0ABE3B0E0EBE3F0E08081482F6B
:1010F0008A81282F30E081E090E0022E02C0880F24
:10110000991F0A94E2F7842B8C93B3C0A8E3B0E054
:10111000E8E3F0E08081482F8A81282F30E081E0E9
:1011200090E0022E02C0880F991F0A94E2F7842BE8
:101130008C939FC0A5E3B0E0E5E3F0E08081482F09
:101140008A81282F30E081E090E0022E02C0880FD3
:10115000991F0A94E2F7842B8C938BC0A2E3B0E032
:10116000E2E3F0E08081482F8A81282F30E081E09F
:1011700090E0022E02C0880F991F0A94E2F7842B98
:101180008C9377C08B81882309F073C08981282FC5
:1011900030E03D832C838C819D818130910559F114
:1011A0002C813D81223031052CF48C819D8100976A
:1011B00069F05FC02C813D812230310589F18C813D
:1011C0009D818330910509F440C053C0ABE3B0E08A
:1011D000EBE3F0E08081482F8A81282F30E081E026
:1011E00090E0022E02C0880F991F0A94E2F78095C2
:1011F00084238C933EC0A8E3B0E0E8E3F0E0808174
:10120000482F8A81282F30E081E090E0022E02C032
:10121000880F991F0A94E2F7809584238C9329C044
:10122000A5E3B0E0E5E3F0E08081482F8A81282F34
:1012300030E081E090E0022E02C0880F991F0A94EE
:10124000E2F7809584238C9314C0A2E3B0E0E2E33C
:10125000F0E08081482F8A81282F30E081E090E003
:10126000022E02C0880F991F0A94E2F7809584230A
:101270008C9327960FB6F894DEBF0FBECDBFCF91EB
:10128000DF910895DF93CF9300D000D0CDB7DEB7C4
:1012900089836A838981282F30E03C832B838B816B
:1012A0009C8181309105D1F02B813C812230310528
:1012B0002CF48B819C81009761F01EC02B813C81B6
:1012C0002230310581F08B819C818330910581F042
:1012D00013C0EAE3F0E08A8180830EC0E7E3F0E028
:1012E0008A81808309C0E4E3F0E08A81808304C0BE
:1012F000E1E3F0E08A8180830F900F900F900F90D0
:10130000CF91DF910895DF93CF9300D000D0CDB778
:10131000DEB789836A838981282F30E03C832B8361
:101320008B819C8181309105D1F02B813C812230D1
:1013300031052CF48B819C81009761F01EC02B81BC
:101340003C812230310581F08B819C818330910575
:1013500081F013C0EBE3F0E08A8180830EC0E8E304
:10136000F0E08A81808309C0E5E3F0E08A81808330
:1013700004C0E2E3F0E08A8180830F900F900F9029
:101380000F90CF91DF910895DF93CF9300D000D0DD
:10139000CDB7DEB789836A838981282F30E03C830B
:1013A0002B838B819C818130910549F12B813C817C
:1013B000223031052CF48B819C81009761F05AC05A
:1013C0002B813C812230310571F18B819C818330EE
:1013D0009105E9F14FC0ABE3B0E0EBE3F0E08081D1
:1013E000482F8A81282F30E081E090E0022E02C051
:1013F000880F991F0A94E2F784278C933BC0A8E3D7
:10140000B0E0E8E3F0E08081482F8A81282F30E0C7
:1014100081E090E0022E02C0880F991F0A94E2F743
:1014200084278C9327C0A5E3B0E0E5E3F0E080815A
:10143000482F8A81282F30E081E090E0022E02C000
:10144000880F991F0A94E2F784278C9313C0A2E3B4
:10145000B0E0E2E3F0E08081482F8A81282F30E07D
:1014600081E090E0022E02C0880F991F0A94E2F7F3
:1014700084278C930F900F900F900F90CF91DF9156
:101480000895DF93CF9300D000D00F92CDB7DEB791
:101490008A836B838A81282F30E03D832C834C81A3
:1014A0005D814130510541F18C819D8182309105F2
:1014B00034F42C813D812115310561F052C04C81FD
:1014C0005D814230510551F18C819D8183309105C0
:1014D000B9F147C0E9E3F0E08081282F30E08B814B
:1014E000882F90E0A90102C0559547958A95E2F7AB
:1014F000CA018170898335C0E6E3F0E08081282F3E
:1015000030E08B81882F90E0A90102C05595479566
:101510008A95E2F7CA018170898323C0E3E3F0E092
:101520008081282F30E08B81882F90E0A90102C0B4
:10153000559547958A95E2F7CA018170898311C054
:10154000E0E3F0E08081282F30E08B81882F90E06D
:10155000A90102C0559547958A95E2F7CA018170A5
:10156000898389810F900F900F900F900F90CF91EA
:10157000DF910895DF93CF93CDB7DEB72F970FB6E6
:10158000F894DEBF0FBECDBF8F8783E066E040E0FA
:101590000E94420883E067E040E00E9442088F8595
:1015A000882F90E08130910551F482E060E00E9444
:1015B000830982E060E041E00E94420804C082E0CA
:1015C0006F850E94830983E065E041E00E94420844
:1015D00080E090E0A0E0B0E48B879C87AD87BE8779
:1015E0006B857C858D859E8520E030E04AEF54E454
:1015F0000E941F02DC01CB018F839887A987BA87DD
:101600006F81788589859A8520E030E040E85FE346
:101610000E94790388232CF481E090E09E838D83DF
:101620003FC06F81788589859A8520E03FEF4FE73D
:1016300057E40E94190318164CF56B857C858D853F
:101640009E8520E030E040E251E40E941F02DC0170
:10165000CB01BC01CD010E944900DC01CB019E837E
:101660008D830FC088EC90E09C838B838B819C8161
:101670000197F1F79C838B838D819E8101979E83D7
:101680008D838D819E81009769F714C06F81788565
:1016900089859A850E944900DC01CB019E838D8358
:1016A0008D819E819A83898389819A810197F1F73F
:1016B0009A83898383E065E040E00E9442082F9688
:1016C0000FB6F894DEBF0FBECDBFCF91DF91089566
:1016D000DF93CF93CDB7DEB72F970FB6F894DEBF69
:1016E0000FBECDBF8F8783E066E040E00E944208D6
:1016F00083E067E041E00E9442088F85882F90E0F8
:101700008130910551F482E060E00E94830982E01B
:1017100060E041E00E94420804C082E06F850E94C0
:10172000830983E065E041E00E94420880E090E0A8
:10173000A0E0B0E48B879C87AD87BE876B857C85F6
:101740008D859E8520E030E04AEF54E40E941F0220
:10175000DC01CB018F839887A987BA876F81788551
:1017600089859A8520E030E040E85FE30E947903B4
:1017700088232CF481E090E09E838D833FC06F81AD
:10178000788589859A8520E03FEF4FE757E40E94EE
:10179000190318164CF56B857C858D859E8520E098
:1017A00030E040E251E40E941F02DC01CB01BC01A9
:1017B000CD010E944900DC01CB019E838D830FC0C7
:1017C00088EC90E09C838B838B819C810197F1F75F
:1017D0009C838B838D819E8101979E838D838D81D8
:1017E0009E81009769F714C06F81788589859A85F5
:1017F0000E944900DC01CB019E838D838D819E81F7
:101800009A83898389819A810197F1F79A838983E1
:1018100083E065E040E00E9442082F960FB6F894FE
:10182000DEBF0FBECDBFCF91DF9108950F931F9301
:10183000DF93CF93CDB7DEB7C854D0400FB6F8943E
:10184000DEBF0FBECDBF83E067E041E00E946207CC
:1018500083E066E041E00E94620783E065E041E0EA
:101860000E94620782E061E00E944209FE01ED5B96
:10187000FF4F80E090E0A8E4B2E480839183A283EC
:10188000B3838E01015C1F4FFE01ED5BFF4F608152
:1018900071818281938120E030E04AEF54E40E941C
:1018A0001F02DC01CB01F80180839183A283B38303
:1018B000FE01FF96608171818281938120E030E09A
:1018C00040E85FE30E94790388232CF481E090E0F4
:1018D0009EAF8DAF46C0FE01FF966081718182810F
:1018E000938120E03FEF4FE757E40E941903181659
:1018F00064F5FE01ED5BFF4F608171818281938110
:1019000020E030E040E251E40E941F02DC01CB0104
:10191000BC01CD010E944900DC01CB019EAF8DAF1F
:101920000FC088EC90E09CAF8BAF8BAD9CAD019766
:10193000F1F79CAF8BAF8DAD9EAD01979EAF8DAF94
:101940008DAD9EAD009769F716C0FE01FF966081D0
:101950007181828193810E944900DC01CB019EAF9D
:101960008DAF8DAD9EAD9AAF89AF89AD9AAD019720
:10197000F1F79AAF89AF809170008B7F80937000F0
:101980008091700088608093700080917000806109
:1019900080937000809170000E94BA0A80E090E00D
:1019A000A0E8BFE38DAB9EABAFABB8AF6DA97EA98E
:1019B0008FA998AD20E030E04AEF54E40E941F0266
:1019C000DC01CB0189AB9AABABABBCAB69A97AA903
:1019D0008BA99CA920E030E040E85FE30E947903F6
:1019E00088232CF481E090E098AB8FA73FC069A9D1
:1019F0007AA98BA99CA920E03FEF4FE757E40E940A
:101A0000190318164CF56DA97EA98FA998AD20E091
:101A100030E040E251E40E941F02DC01CB01BC0136
:101A2000CD010E944900DC01CB0198AB8FA70FC00C
:101A300088EC90E09EA78DA78DA59EA50197F1F754
:101A40009EA78DA78FA598A9019798AB8FA78FA563
:101A500098A9009769F714C069A97AA98BA99CA9CC
:101A60000E944900DC01CB0198AB8FA78FA598A9F4
:101A70009CA78BA78BA59CA50197F1F79CA78BA78B
:101A800080916F000E94BA0A80E090E0A0E8BFE376
:101A90008FA398A7A9A7BAA76FA178A589A59AA58A
:101AA00020E030E04AEF54E40E941F02DC01CB0149
:101AB0008BA39CA3ADA3BEA36BA17CA18DA19EA172
:101AC00020E030E040E85FE30E94790388232CF4B3
:101AD00081E090E09AA389A33FC06BA17CA18DA176
:101AE0009EA120E03FEF4FE757E40E94190318162C
:101AF0004CF56FA178A589A59AA520E030E040E2D9
:101B000051E40E941F02DC01CB01BC01CD010E9407
:101B10004900DC01CB019AA389A30FC088EC90E0B7
:101B200098A38F8F8F8D98A10197F1F798A38F8F2E
:101B300089A19AA101979AA389A389A19AA1009743
:101B400069F714C06BA17CA18DA19EA10E944900E0
:101B5000DC01CB019AA389A389A19AA19E8F8D8FC5
:101B60008D8D9E8D0197F1F79E8F8D8F81E00E9464
:101B7000BA0A80E090E0A0E0B0E4898F9A8FAB8F42
:101B8000BC8F698D7A8D8B8D9C8D20E030E04AEF83
:101B900054E40E941F02DC01CB018D8B9E8BAF8B26
:101BA000B88F6D897E898F89988D20E030E040E87C
:101BB0005FE30E94790388232CF481E090E09C8B02
:101BC0008B8B3FC06D897E898F89988D20E03FEF98
:101BD0004FE757E40E94190318164CF5698D7A8D6A
:101BE0008B8D9C8D20E030E040E251E40E941F028A
:101BF000DC01CB01BC01CD010E944900DC01CB011D
:101C00009C8B8B8B0FC088EC90E09A8B898B898999
:101C10009A890197F1F79A8B898B8B899C89019717
:101C20009C8B8B8B8B899C89009769F714C06D897D
:101C30007E898F89988D0E944900DC01CB019C8BA5
:101C40008B8B8B899C89988B8F878F85988901973F
:101C5000F1F7988B8F8786E00E94BA0A80E090E0C7
:101C6000A0E0B0E48B879C87AD87BE876B857C85C1
:101C70008D859E8520E030E04AEF54E40E941F02EB
:101C8000DC01CB018F839887A987BA876F8178851C
:101C900089859A8520E030E040E85FE30E9479037F
:101CA00088232CF481E090E09E838D833FC06F8178
:101CB000788589859A8520E03FEF4FE757E40E94B9
:101CC000190318164CF56B857C858D859E8520E063
:101CD00030E040E251E40E941F02DC01CB01BC0174
:101CE000CD010E944900DC01CB019E838D830FC092
:101CF00088EC90E09C838B838B819C810197F1F72A
:101D00009C838B838D819E8101979E838D838D81A2
:101D10009E81009769F714C06F81788589859A85BF
:101D20000E944900DC01CB019E838D838D819E81C1
:101D30009A83898389819A810197F1F79A838983AC
:101D400080E40E94BA0AFE01E85BFF4F108238C0AF
:101D5000FE01E95BFF4F108224C0FE01E85BFF4FEC
:101D60008081482F50E0FE01E95BFF4F8081282FE2
:101D700030E0CA01880F991F880F991F880F991F9B
:101D8000820F931FFC01E758FF4F80810E94680B70
:101D9000DE01A95BBF4FFE01E95BFF4F80818F5FD2
:101DA0008C93FE01E95BFF4F80818830B0F2DE0149
:101DB000A85BBF4FFE01E85BFF4F80818F5F8C9374
:101DC000FE01E85BFF4F8081883010F280E80E94BE
:101DD000BA0AC85BDF4F0FB6F894DEBF0FBECDBFA7
:101DE000CF91DF911F910F910895DF93CF93CDB7DE
:101DF000DEB781E00E94BA0ACF91DF910895DF93A8
:101E0000CF93CDB7DEB782E00E94BA0ACF91DF91BF
:101E10000895DF93CF9300D00F92CDB7DEB78983BB
:101E20008981282F30E03B832A838A819B818130FE
:101E3000910531F02A813B812230310529F007C01C
:101E400080E80E94BA0A03C080EC0E94BA0A0F9090
:101E50000F900F90CF91DF910895DF93CF9300D033
:101E600000D0CDB7DEB789836A838981282F30E01F
:101E70003C832B838B819C818130910531F02B81B8
:101E80003C812230310531F009C08A8181580E949D
:101E9000BA0A04C08A8181540E94BA0A0F900F9036
:101EA0000F900F90CF91DF910895DF93CF930F9212
:101EB000CDB7DEB7898389818A3028F48981805D36
:101EC0000E94680B03C089810E94680B0F90CF911C
:101ED000DF910895DF93CF9300D00F92CDB7DEB797
:101EE0009B838A8319820EC08981282F30E08A81E2
:101EF0009B81FC01E20FF31F80810E94550F8981B5
:101F00008F5F89838981282F30E08A819B81FC0142
:101F1000E20FF31F8081882339F70F900F900F9005
:101F2000CF91DF910895DF93CF93CDB7DEB78CE1EA
:101F30000E94BA0ACF91DF910895DF93CF93CDB776
:101F4000DEB788E10E94BA0ACF91DF910895DF934E
:101F5000CF9300D0CDB7DEB78A83198206C084E163
:101F60000E94BA0A89818F5F898399818A81981733
:101F7000B0F30F900F90CF91DF910895DF93CF933F
:101F800000D0CDB7DEB78A83198206C080E10E94F7
:101F9000BA0A89818F5F898399818A819817B0F302
:101FA0000F900F90CF91DF910895DF93CF930F9211
:101FB000CDB7DEB789838981882331F480916F00A2
:101FC0008D7F80936F0005C080916F008260809349
:101FD0006F0080916F000E94BA0A0F90CF91DF913D
:101FE0000895DF93CF930F92CDB7DEB789838981B0
:101FF000882331F480916F008E7F80936F0005C03D
:1020000080916F00816080936F0080916F000E94CB
:10201000BA0A0F90CF91DF910895DF93CF930F927B
:10202000CDB7DEB789838981882331F480916F0031
:102030008B7F80936F0005C080916F0084608093D8
:102040006F0080916F000E94BA0A0F90CF91DF91CC
:102050000895DF93CF930F92CDB7DEB7898389813F
:10206000883018F489810E94680B0F90CF91DF911E
:102070000895DF93CF930F92CDB7DEB7198227C0B3
:102080008981882F90E0FC01EF58FF4F908183E019
:10209000692F41E00E9462078981882F90E0FC014E
:1020A000EB58FF4F908183E0692F40E00E94620768
:1020B0008981882F90E0FC01EB58FF4F908183E0ED
:1020C000692F41E00E94420889818F5F898389815D
:1020D0008430B0F20F90CF91DF910895DF93CF93CA
:1020E00000D000D0CDB7DEB71B820FC08B81882F08
:1020F00090E0FC01EF58FF4F908183E0692F41E0B1
:102100000E9442088B818F5F8B838B81843070F3B8
:102110001A8243C08A81882F90E0FC01EF58FF4F5C
:10212000908183E0692F40E00E944208198223C019
:102130008981882F90E0FC01EB58FF4F908183E06C
:10214000692F0E94410A882399F48981482F50E021
:102150008A81282F30E0CA01880F991F880F991FA4
:10216000820F931FFC01E754FF4F80818C831BC0BB
:1021700089818F5F898389818430D0F28A81882F19
:1021800090E0FC01EF58FF4F908183E0692F41E020
:102190000E9442088A818F5F8A838A81843008F492
:1021A000B9CF8FE38C838C810F900F900F900F909D
:1021B000CF91DF910895DF93CF930F92CDB7DEB724
:1021C000898389816FEF0E9442090F90CF91DF913F
:1021D0000895DF93CF9300D0CDB7DEB789836A83AC
:1021E0008A81882F90E0FC01E753FF4F908189811D
:1021F000692F0E9483090F900F90CF91DF9108956E
:10220000DF93CF93CDB7DEB70E947F060E94160CF6
:102210000E94A30580E062E041E00E94420881E65E
:102220000E94550F80E690E00E946A0FFFCF2F9228
:102230003F924F925F926F927F928F929F92AF9256
:10224000BF92CF92DF92EF92FF920F931F93CF93A3
:10225000DF93CDB7DEB7CA1BDB0B0FB6F894DEBF3A
:102260000FBECDBF09942A88398848885F846E8460
:102270007D848C849B84AA84B984C884DF80EE80AA
:10228000FD800C811B81AA81B981CE0FD11D0FB6B3
:10229000F894DEBF0FBECDBFED010895F894FFCFD7
:1022A00048617373616E0000000000000000000FC1
:1022B000280302010004050607000A1F1F0E040080
:1022C00000040E1515040400000E1F1F1F000E0051
:1022D0000000040E1F0E040000040E1F1B1100005E
:1022E00000111B0E040E1B11001F15151F15151FC5
:1022F000000E1D191F0E001F0031323334353637E2
:10230000383930392A63303D2F3F065B4F666DFD0B
:04231000077F6F00D4
:00000001FF
