:100000000C942A000C9472080C94A5080C94D8083F
:100010000C9447000C9447000C9447000C94470044
:100020000C9447000C9447000C9447000C94470034
:100030000C9447000C944C060C9447000C94470019
:100040000C9447000C9447000C9447000C94470014
:100050000C94470011241FBECFE5D8E0DEBFCDBF12
:1000600014E0A0E6B0E0EAE9FCE202C005900D92DF
:10007000AC37B107D9F714E0ACE7B4E001C01D928A
:10008000A738B107E1F70E94A9120C944B160C9403
:100090000000EF92FF920F931F937B018C0120E0F1
:1000A00030E040E05FE40E94490388238CF0C801FF
:1000B000B70120E030E040E05FE40E94C1010E940F
:1000C000A9039B01AC01205030404040504806C07D
:1000D000C801B7010E94A9039B01AC01B901CA0183
:1000E0001F910F91FF90EF900895A0E0B0E0EBE733
:1000F000F0E00C940B16DC012B01FA019C9192307C
:1001000008F439C1EB018881823008F433C194309E
:1001100069F4843009F02FC111969C91119789815F
:10012000981709F428C1ACE1B2E025C1843009F484
:1001300021C18230A9F4923009F01DC19A01AD01AC
:1001400088E0EA010990AE01E90109929E0181501F
:10015000C1F7E201898111969C918923818308C1AD
:10016000923009F407C112962D903C901397EB0141
:100170008A819B811496AD90BD90CD90DC901797AD
:10018000EC80FD800E811F819101281B390BB90184
:1001900037FF04C066277727621B730B6032710537
:1001A0000CF061C0121613066CF537014801062EDB
:1001B00004C096948794779467940A94D2F721E0C8
:1001C00030E040E050E004C0220F331F441F551FB1
:1001D0006A95D2F721503040404050402E213F21B7
:1001E00040235123211531054105510521F021E01E
:1001F00030E040E050E079018A01E628F72808293C
:1002000019293CC0232BD1F1260E371E350146019A
:10021000062E04C096948794779467940A94D2F734
:1002200021E030E040E050E004C0220F331F441FC3
:10023000551F6A95D2F721503040404050402A2146
:100240003B214C215D21211531054105510521F04E
:1002500021E030E040E050E059016A01A628B728CB
:10026000C828D9280BC0821593052CF01C01AA249C
:10027000BB24650103C0EE24FF24870111969C91E5
:10028000D20111968C91981709F445C0992339F041
:10029000A80197012A193B094C095D0906C0A6016E
:1002A00095012E193F09400B510B57FD08C01182D3
:1002B0003382228224833583468357831DC081E0A5
:1002C00081833382228288279927DC01821B930B4A
:1002D000A40BB50B84839583A683B7830DC0220F2F
:1002E000331F441F551F24833583468357838281E0
:1002F000938101979383828324813581468157813D
:10030000DA01C9010197A109B1098F5F9F4FAF4F72
:10031000BF4328F30BC0918333822282EA0CFB1C7B
:100320000C1D1D1DE482F5820683178383E0808304
:10033000248135814681578157FF1AC0C901AA27F8
:1003400097FDA095BA2F81709070A070B0705695EF
:10035000479537952795822B932BA42BB52B848318
:100360009583A683B7838281938101969383828349
:10037000DF0101C0D201CD01CDB7DEB7E2E10C94BF
:100380002716A0E2B0E0E7ECF1E00C9417166983C1
:100390007A838B839C832D833E834F835887E9E048
:1003A000EE2EF12CEC0EFD1ECE010196B7010E943F
:1003B000D2048E010F5E1F4FCE010596B8010E9438
:1003C000D2048A8991E089278A8BC701B801AE01DE
:1003D000475E5F4F0E9475000E94FD03A096E6E015
:1003E0000C943316A0E2B0E0E8EFF1E00C9417169D
:1003F00069837A838B839C832D833E834F835887C5
:10040000F9E0EF2EF12CEC0EFD1ECE010196B701A6
:100410000E94D2048E010F5E1F4FCE010596B801D7
:100420000E94D204C701B801AE01475E5F4F0E942F
:1004300075000E94FD03A096E6E00C943316A0E23E
:10044000B0E0E5E2F2E00C940B1669837A838B83CB
:100450009C832D833E834F835887CE010196BE0136
:10046000675F7F4F0E94D204CE010596BE016F5E8A
:100470007F4F0E94D2049985923088F0898982301A
:10048000C8F0943019F4823051F404C0843029F457
:10049000923081F48CE192E0C6C0923049F420E0C1
:1004A0009A858A89981321E02A87CE010996BBC0D4
:1004B000823049F420E09A858A89981321E02A8BBA
:1004C000CE014196B0C02D843E844F8458886D88FB
:1004D0007E888F88988CEE24FF248701AA24BB2471
:1004E000650140E050E060E070E0E0E0F0E0C10174
:1004F00081709070892BE9F0E60CF71C081D191D1E
:100500009A01AB012A0D3B1D4C1D5D1D80E090E062
:10051000A0E0B0E0E614F7040805190520F481E036
:1005200090E0A0E0B0E0BA01A901480F591F6A1F8E
:100530007B1FAA0CBB1CCC1CDD1C97FE08C081E0F5
:1005400090E0A0E0B0E0A82AB92ACA2ADB2A3196B6
:10055000E032F10549F0660C771C881C991C569412
:10056000479437942794C3CFFA85EA892B893C892D
:100570008B859C85280F391F2E5F3F4F17C0CA01FE
:1005800081709070892B61F016950795F794E79428
:1005900080E090E0A0E0B0E8E82AF92A0A2B1B2BC3
:1005A00076956795579547952F5F3F4F77FDE7CF36
:1005B0000CC0440F551F661F771F17FD4160EE0CDE
:1005C000FF1C001F111F21503040403090E05907A0
:1005D00090E0690790E4790760F32B8F3C8FDB0193
:1005E000CA018F779070A070B07080349105A1051A
:1005F000B10561F447FD0AC0E114F10401051105DC
:1006000029F0405C5F4F6F4F7F4F40781A8EFE1786
:1006100011F081E08A8F4D8F5E8F6F8F78A383E01A
:10062000898FCE0149960E94FD03A096E2E10C94C9
:100630002716A8E1B0E0EFE1F3E00C941716698308
:100640007A838B839C832D833E834F83588789E0F5
:10065000E82EF12CEC0EFD1ECE010196B7010E9492
:10066000D2048E010F5E1F4FCE010596B8010E9485
:10067000D2048985823040F08989823028F0C70110
:10068000B8010E944A0501C08FEF6896E6E00C941D
:100690003316A8E1B0E0EFE4F3E00C941716698399
:1006A0007A838B839C832D833E834F83588789E095
:1006B000E82EF12CEC0EFD1ECE010196B7010E9432
:1006C000D2048E010F5E1F4FCE010596B8010E9425
:1006D000D2048985823040F08989823028F0C701B0
:1006E000B8010E944A0501C08FEF6896E6E00C94BD
:1006F0003316A8E1B0E0EFE7F3E00C941716698336
:100700007A838B839C832D833E834F83588789E034
:10071000E82EF12CEC0EFD1ECE010196B7010E94D1
:10072000D2048E010F5E1F4FCE010596B8010E94C4
:10073000D2048985823040F08989823028F0C7014F
:10074000B8010E944A0501C081E06896E6E00C9479
:100750003316ACE0B0E0EFEAF3E00C941B166983CB
:100760007A838B839C83CE010196BE016B5F7F4FA2
:100770000E94D2048D81823061F1823050F1843048
:1007800021F48E81882351F12EC02F81388537FDC9
:1007900020C06E812F3131051CF06623F9F023C093
:1007A0008EE190E0821B930B29853A854B855C8511
:1007B00004C056954795379527958A95D2F76623B5
:1007C000B1F050954095309521953F4F4F4F5F4F79
:1007D0000EC020E030E040E050E009C02FEF3FEFD6
:1007E0004FEF5FE704C020E030E040E050E8B9019F
:1007F000CA012C96E2E00C943716DF92EF92FF923A
:100800000F931F93FC01E480F58006811781D1804E
:100810008081823048F480E090E0A0E1B0E0E82AF6
:10082000F92A0A2B1B2BA5C0843009F49FC0823003
:1008300021F4EE24FF24870105C0E114F104010531
:10084000110519F4E0E0F0E096C0628173819FEF3A
:10085000623879070CF05BC022E83FEF261B370BAC
:100860002A3131052CF020E030E040E050E02AC091
:10087000B801A701022E04C0769567955795479554
:100880000A94D2F781E090E0A0E0B0E004C0880FC5
:10089000991FAA1FBB1F2A95D2F70197A109B10979
:1008A0008E219F21A023B1230097A105B10521F03E
:1008B00081E090E0A0E0B0E09A01AB01282B392B59
:1008C0004A2B5B2BDA01C9018F779070A070B07052
:1008D00080349105A105B10539F427FF09C0205CDA
:1008E0003F4F4F4F5F4F04C0215C3F4F4F4F5F4F13
:1008F000E0E0F0E02030A0E03A07A0E04A07A0E402
:100900005A0710F0E1E0F0E079018A0127C0603871
:10091000710564F5FB01E158FF4FD801C7018F77DE
:100920009070A070B07080349105A105B10539F4C4
:10093000E7FE0DC080E490E0A0E0B0E004C08FE3EB
:1009400090E0A0E0B0E0E80EF91E0A1F1B1F17FFA1
:1009500005C016950795F794E794319687E01695AC
:100960000795F794E7948A95D1F705C0EE24FF2404
:100970008701EFEFF0E06E2F679566276795902F60
:100980009F77D794DD24D7948E2F8695492F462BB9
:10099000582F5D29B701CA011F910F91FF90EF9069
:1009A000DF900895FC01DB01408151812281622F9B
:1009B0006F7770E0221F2227221F9381892F880FD3
:1009C000822B282F30E0991F9927991F11969C930D
:1009D000119721153105A9F54115510561057105DD
:1009E00011F482E037C082E89FEF13969C938E93B8
:1009F00012979A01AB0167E0220F331F441F551F66
:100A00006A95D1F783E08C930DC0220F331F441FEA
:100A1000551F12968D919C911397019713969C9355
:100A20008E931297203080E0380780E0480780E4FA
:100A3000580758F314962D933D934D935C93179755
:100A400008952F3F310579F4411551056105710570
:100A500019F484E08C93089564FF03C081E08C93C3
:100A600012C01C9210C02F57304013963C932E9307
:100A7000129783E08C9387E0440F551F661F771F02
:100A80008A95D1F7706414964D935D936D937C9322
:100A9000179708951F93DC01FB019C91923008F495
:100AA00047C08081823008F443C0943051F41196DD
:100AB0001C91843099F58181682F70E0611B710968
:100AC0003FC0843021F0923031F48230B9F181811D
:100AD000882389F12DC011961C9111978230F1F075
:100AE00081811817D9F412962D913C911397828128
:100AF00093818217930794F028173907BCF0149656
:100B00008D919D910D90BC91A02D248135814681C0
:100B10005781281739074A075B0718F4112341F05A
:100B20000AC082179307A407B50740F4112319F0F0
:100B300061E070E005C06FEF7FEF02C060E070E041
:100B4000CB011F910895DF93CF930F92CDB7DEB7FE
:100B5000198289818068898389818F7B89838981D2
:100B60008F7D898389818F7E89838981877F89832E
:100B700089818B7F8983898182608983898184606F
:100B80008983E0E4F0E089818083E9E2F0E083E3B7
:100B90008083AAE2B0E0EAE2F0E0808180688C9392
:100BA000AAE2B0E0EAE2F0E0808180618C93AAE200
:100BB000B0E0EAE2F0E0808188608C930F90CF9102
:100BC000DF910895DF93CF930F92CDB7DEB789837E
:100BD000EBE2F0E08081829586958770882F90E027
:100BE000817090700097A1F3ECE2F0E0898180833E
:100BF0000F90CF91DF910895DF93CF93CDB7DEB7FC
:100C0000EBE2F0E080818823DCF7ECE2F0E0808129
:100C1000CF91DF910895DF93CF9300D000D0CDB76F
:100C2000DEB79C838B831A8219820FC02B813C8193
:100C300089819A81F901E80FF91F80810E94E205FC
:100C400089819A8101969A8389832B813C8189814C
:100C50009A81F901E80FF91F8081882339F70F90F5
:100C60000F900F900F90CF91DF910895DF93CF9366
:100C700000D0CDB7DEB79A83898389819A810097A6
:100C800031F089819A8190937D0480937C040F9048
:100C90000F90CF91DF9108951F920F920FB60F9290
:100CA00011242F933F934F935F936F937F938F9371
:100CB0009F93AF93BF93EF93FF93DF93CF93CDB702
:100CC000DEB780917C0490917D04009729F0E0913B
:100CD0007C04F0917D040995CF91DF91FF91EF9114
:100CE000BF91AF919F918F917F916F915F914F9144
:100CF0003F912F910F900FBE0F901F901895DF938B
:100D0000CF93CDB7DEB7EAE3F0E08FEF8083E7E380
:100D1000F0E08FEF8083E4E3F0E08FEF8083E1E3A6
:100D2000F0E08AEF8083EBE3F0E08FEF8083E8E38D
:100D3000F0E01082E5E3F0E01082E2E3F0E08FEF14
:100D40008083CF91DF910895DF93CF93CDB7DEB746
:100D5000AFE5B0E0EFE5F0E0808180688C93CF9163
:100D6000DF910895DF93CF93CDB7DEB7AFE5B0E065
:100D7000EFE5F0E080818F778C93CF91DF9108953C
:100D8000DF93CF9300D00F92CDB7DEB789838981EF
:100D9000282F30E03B832A838A819B818130910513
:100DA000F9F02A813B812230310581F18A819B81D2
:100DB0000097D1F5A5E5B0E0E5E5F0E080818E7F14
:100DC0008C93A5E5B0E0E5E5F0E0808182608C934E
:100DD000ABE5B0E0EBE5F0E0808180648C9324C06B
:100DE000A5E5B0E0E5E5F0E080818B7F8C93A5E59B
:100DF000B0E0E5E5F0E08081877F8C93ABE5B0E083
:100E0000EBE5F0E0808180688C930EC0A4E5B0E053
:100E1000E4E5F0E080818F7B8C93ABE5B0E0EBE51F
:100E2000F0E0808180628C930F900F900F90CF91B3
:100E3000DF910895DF93CF9300D00F92CDB7DEB747
:100E400089838981282F30E03B832A838A819B8193
:100E50008130910589F02A813B8122303105A1F052
:100E60008A819B810097B9F4ABE5B0E0EBE5F0E057
:100E7000808180648C930FC0ABE5B0E0EBE5F0E0DF
:100E8000808180688C9307C0ABE5B0E0EBE5F0E0D3
:100E9000808180628C930F900F900F90CF91DF91A3
:100EA0000895DF93CF9300D00F92CDB7DEB789833B
:100EB0008981282F30E03B832A838A819B8181307E
:100EC000910589F02A813B8122303105A1F08A8188
:100ED0009B810097B9F4ABE5B0E0EBE5F0E08081F1
:100EE0008F7B8C930FC0ABE5B0E0EBE5F0E0808149
:100EF0008F778C9307C0ABE5B0E0EBE5F0E0808145
:100F00008F7D8C930F900F900F90CF91DF9108956C
:100F1000DF93CF9300D000D0CDB7DEB789836A834B
:100F20008981282F30E03C832B838B819C81813009
:100F3000910509F454C02B813C812230310509F41C
:100F400096C08B819C81009709F0A6C08A81813070
:100F500079F4A5E5B0E0E5E5F0E080818E7F8C9343
:100F6000A5E5B0E0E5E5F0E080818D7F8C9394C04D
:100F70008A81823079F4A5E5B0E0E5E5F0E0808192
:100F800081608C93A5E5B0E0E5E5F0E080818D7FA0
:100F90008C9382C08A81833079F4A5E5B0E0E5E5E1
:100FA000F0E080818E7F8C93A5E5B0E0E5E5F0E090
:100FB000808182608C9370C08A81843009F06CC01B
:100FC000A5E5B0E0E5E5F0E0808181608C93A5E5E2
:100FD000B0E0E5E5F0E0808182608C935DC08A81BD
:100FE000813079F4A5E5B0E0E5E5F0E080818B7F24
:100FF0008C93A5E5B0E0E5E5F0E08081877F8C93F8
:101000004BC08A81823079F4A5E5B0E0E5E5F0E0F7
:10101000808184608C93A5E5B0E0E5E5F0E0808117
:10102000877F8C9339C08A81833079F4A5E5B0E05D
:10103000E5E5F0E080818B7F8C93A5E5B0E0E5E508
:10104000F0E0808188608C9327C08A81843021F50C
:10105000A5E5B0E0E5E5F0E0808184608C93A5E54E
:10106000B0E0E5E5F0E0808188608C9315C08A816E
:10107000843041F4A4E5B0E0E4E5F0E080818064F0
:101080008C930AC08A81833039F4A4E5B0E0E4E5AA
:10109000F0E080818F7B8C930F900F900F900F90DA
:1010A000CF91DF910895DF93CF9300D00F92CDB70A
:1010B000DEB789837B836A838A819B81009761F095
:1010C0008981882F90E0880F991FFC01E258FB4F1F
:1010D0008A819B81918380830F900F900F90CF9195
:1010E000DF9108951F920F920FB60F9211242F9344
:1010F0003F934F935F936F937F938F939F93AF93A0
:10110000BF93EF93FF93DF93CF93CDB7DEB780917B
:101110007E0490917F04009729F0E0917E04F09185
:101120007F040995CF91DF91FF91EF91BF91AF912E
:101130009F918F917F916F915F914F913F912F91EF
:101140000F900FBE0F901F9018951F920F920FB621
:101150000F9211242F933F934F935F936F937F933D
:101160008F939F93AF93BF93EF93FF93DF93CF93AF
:10117000CDB7DEB78091800490918104009729F06B
:10118000E0918004F09181040995CF91DF91FF9166
:10119000EF91BF91AF919F918F917F916F915F91EF
:1011A0004F913F912F910F900FBE0F901F90189568
:1011B0001F920F920FB60F9211242F933F934F93CC
:1011C0005F936F937F938F939F93AF93BF93EF93AF
:1011D000FF93DF93CF93CDB7DEB7809182049091D8
:1011E0008304009729F0E0918204F091830409952B
:1011F000CF91DF91FF91EF91BF91AF919F918F912F
:101200007F916F915F914F913F912F910F900FBE02
:101210000F901F901895DF93CF93CDB7DEB7279728
:101220000FB6F894DEBF0FBECDBF89836A834B83B0
:101230008B81882309F054C08981282F30E03F83B7
:101240002E838E819F818230910501F12E813F8115
:101250002330310581F18E819F818130910509F024
:10126000B1C0A7E3B0E0E7E3F0E08081482F8A81D6
:10127000282F30E081E090E0022E02C0880F991FF5
:101280000A94E2F7809584238C939CC0A4E3B0E099
:10129000E4E3F0E08081482F8A81282F30E081E06C
:1012A00090E0022E02C0880F991F0A94E2F7809501
:1012B00084238C9387C0A1E3B0E0E1E3F0E0808178
:1012C000482F8A81282F30E081E090E0022E02C072
:1012D000880F991F0A94E2F7809584238C9372C03B
:1012E0008B81813009F06EC08981282F30E03D83E9
:1012F0002C838C819D818130910549F12C813D8128
:10130000223031052CF48C819D81009761F05AC008
:101310002C813D812230310571F18C819D8183309A
:101320009105E9F14FC0AAE3B0E0EAE3F0E0808183
:10133000482F8A81282F30E081E090E0022E02C001
:10134000880F991F0A94E2F7842B8C933BC0A7E384
:10135000B0E0E7E3F0E08081482F8A81282F30E079
:1013600081E090E0022E02C0880F991F0A94E2F7F4
:10137000842B8C9327C0A4E3B0E0E4E3F0E0808109
:10138000482F8A81282F30E081E090E0022E02C0B1
:10139000880F991F0A94E2F7842B8C9313C0A1E362
:1013A000B0E0E1E3F0E08081482F8A81282F30E02F
:1013B00081E090E0022E02C0880F991F0A94E2F7A4
:1013C000842B8C9327960FB6F894DEBF0FBECDBF4B
:1013D000CF91DF910895DF93CF93CDB7DEB72797F5
:1013E0000FB6F894DEBF0FBECDBF89836A834B83EF
:1013F0008B81813009F06FC08981282F30E03F83D5
:101400002E838E819F818130910549F12E813F810C
:10141000223031052CF48E819F81009761F0D2C07B
:101420002E813F812230310571F18E819F81833081
:101430009105E9F1C7C0ABE3B0E0EBE3F0E08081F8
:10144000482F8A81282F30E081E090E0022E02C0F0
:10145000880F991F0A94E2F7842B8C93B3C0A8E3FA
:10146000B0E0E8E3F0E08081482F8A81282F30E067
:1014700081E090E0022E02C0880F991F0A94E2F7E3
:10148000842B8C939FC0A5E3B0E0E5E3F0E080817E
:10149000482F8A81282F30E081E090E0022E02C0A0
:1014A000880F991F0A94E2F7842B8C938BC0A2E3D8
:1014B000B0E0E2E3F0E08081482F8A81282F30E01D
:1014C00081E090E0022E02C0880F991F0A94E2F793
:1014D000842B8C9377C08B81882309F073C089811A
:1014E000282F30E03D832C838C819D8181309105B4
:1014F00059F12C813D81223031052CF48C819D8164
:10150000009769F05FC02C813D812230310589F15F
:101510008C819D818330910509F440C053C0ABE3B9
:10152000B0E0EBE3F0E08081482F8A81282F30E0A3
:1015300081E090E0022E02C0880F991F0A94E2F722
:10154000809584238C933EC0A8E3B0E0E8E3F0E00C
:101550008081482F8A81282F30E081E090E0022EA0
:1015600002C0880F991F0A94E2F7809584238C9318
:1015700029C0A5E3B0E0E5E3F0E08081482F8A814F
:10158000282F30E081E090E0022E02C0880F991FE2
:101590000A94E2F7809584238C9314C0A2E3B0E010
:1015A000E2E3F0E08081482F8A81282F30E081E05B
:1015B00090E0022E02C0880F991F0A94E2F78095EE
:1015C00084238C9327960FB6F894DEBF0FBECDBF51
:1015D000CF91DF910895DF93CF9300D000D0CDB7A6
:1015E000DEB789836A838981282F30E03C832B838F
:1015F0008B819C8181309105D1F02B813C812230FF
:1016000031052CF48B819C81009761F01EC02B81E9
:101610003C812230310581F08B819C8183309105A2
:1016200081F013C0EAE3F0E08A8180830EC0E7E333
:10163000F0E08A81808309C0E4E3F0E08A8180835E
:1016400004C0E1E3F0E08A8180830F900F900F9057
:101650000F90CF91DF910895DF93CF9300D000D00A
:10166000CDB7DEB789836A838981282F30E03C8338
:101670002B838B819C8181309105D1F02B813C8122
:10168000223031052CF48B819C81009761F01EC0C3
:101690002B813C812230310581F08B819C8183300C
:1016A000910581F013C0EBE3F0E08A8180830EC0E6
:1016B000E8E3F0E08A81808309C0E5E3F0E08A8115
:1016C000808304C0E2E3F0E08A8180830F900F9072
:1016D0000F900F90CF91DF910895DF93CF9300D0BB
:1016E00000D0CDB7DEB789836A838981282F30E0A7
:1016F0003C832B838B819C818130910549F12B8127
:101700003C81223031052CF48B819C81009761F063
:101710005AC02B813C812230310571F18B819C8133
:1017200083309105E9F14FC0ABE3B0E0EBE3F0E0CB
:101730008081482F8A81282F30E081E090E0022EBE
:1017400002C0880F991F0A94E2F784278C933BC04C
:10175000A8E3B0E0E8E3F0E08081482F8A81282FF9
:1017600030E081E090E0022E02C0880F991F0A94B9
:10177000E2F784278C9327C0A5E3B0E0E5E3F0E02F
:101780008081482F8A81282F30E081E090E0022E6E
:1017900002C0880F991F0A94E2F784278C9313C024
:1017A000A2E3B0E0E2E3F0E08081482F8A81282FB5
:1017B00030E081E090E0022E02C0880F991F0A9469
:1017C000E2F784278C930F900F900F900F90CF919A
:1017D000DF910895DF93CF9300D000D00F92CDB763
:1017E000DEB78A836B838A81282F30E03D832C8388
:1017F0004C815D814130510541F18C819D81823068
:10180000910534F42C813D812115310561F052C0E0
:101810004C815D814230510551F18C819D81833035
:101820009105B9F147C0E9E3F0E08081282F30E06D
:101830008B81882F90E0A90102C0559547958A9524
:10184000E2F7CA018170898335C0E6E3F0E0808168
:10185000282F30E08B81882F90E0A90102C0559598
:1018600047958A95E2F7CA018170898323C0E3E333
:10187000F0E08081282F30E08B81882F90E0A90153
:1018800002C0559547958A95E2F7CA018170898310
:1018900011C0E0E3F0E08081282F30E08B81882FB9
:1018A00090E0A90102C0559547958A95E2F7CA01D3
:1018B0008170898389810F900F900F900F900F9006
:1018C000CF91DF910895DF93CF93CDB7DEB72F97F8
:1018D0000FB6F894DEBF0FBECDBF8F8783E066E002
:1018E00040E00E94EB0983E067E040E00E94EB09E2
:1018F0008F85882F90E08130910551F482E060E07F
:101900000E942C0B82E060E041E00E94EB0904C0E1
:1019100082E06F850E942C0B83E065E041E00E942D
:10192000EB0980E090E0A0E0B0E48B879C87AD8776
:10193000BE876B857C858D859E8520E030E04AEFF3
:1019400054E40E941F02DC01CB018F839887A98792
:10195000BA876F81788589859A8520E030E040E8F4
:101960005FE30E94790388232CF481E090E09E835A
:101970008D833FC06F81788589859A8520E03FEF10
:101980004FE757E40E94190318164CF56B857C85C8
:101990008D859E8520E030E040E251E40E941F02E8
:1019A000DC01CB01BC01CD010E944900DC01CB016F
:1019B0009E838D830FC088EC90E09C838B838B810A
:1019C0009C810197F1F79C838B838D819E81019788
:1019D0009E838D838D819E81009769F714C06F81EE
:1019E000788589859A850E944900DC01CB019E8318
:1019F0008D838D819E819A83898389819A810197C4
:101A0000F1F79A83898383E065E040E00E94EB0967
:101A10002F960FB6F894DEBF0FBECDBFCF91DF91EA
:101A20000895DF93CF93CDB7DEB72F970FB6F89415
:101A3000DEBF0FBECDBF8F8783E066E040E00E942F
:101A4000EB0983E067E041E00E94EB098F85882F76
:101A500090E08130910551F482E060E00E942C0B0F
:101A600082E060E041E00E94EB0904C082E06F8503
:101A70000E942C0B83E065E041E00E94EB0980E0CE
:101A800090E0A0E0B0E48B879C87AD87BE876B8534
:101A90007C858D859E8520E030E04AEF54E40E94ED
:101AA0001F02DC01CB018F839887A987BA876F81DA
:101AB000788589859A8520E030E040E85FE30E94E0
:101AC000790388232CF481E090E09E838D833FC0CE
:101AD0006F81788589859A8520E03FEF4FE757E44D
:101AE0000E94190318164CF56B857C858D859E85A3
:101AF00020E030E040E251E40E941F02DC01CB0113
:101B0000BC01CD010E944900DC01CB019E838D8385
:101B10000FC088EC90E09C838B838B819C81019724
:101B2000F1F79C838B838D819E8101979E838D83AA
:101B30008D819E81009769F714C06F8178858985B2
:101B40009A850E944900DC01CB019E838D838D81A3
:101B50009E819A83898389819A810197F1F79A837B
:101B6000898383E065E040E00E94EB092F960FB681
:101B7000F894DEBF0FBECDBFCF91DF9108950F93D4
:101B80001F93DF93CF93CDB7DEB7C854D0400FB6C5
:101B9000F894DEBF0FBECDBF83E067E041E00E9456
:101BA0000B0983E066E041E00E940B0983E065E0F9
:101BB00041E00E940B0982E061E00E94EB0AFE0115
:101BC000ED5BFF4F80E090E0A8E4B2E48083918376
:101BD000A283B3838E01015C1F4FFE01ED5BFF4FBB
:101BE000608171818281938120E030E04AEF54E48A
:101BF0000E941F02DC01CB01F80180839183A28344
:101C0000B383FE01FF96608171818281938120E020
:101C100030E040E85FE30E94790388232CF481E000
:101C200090E09EAF8DAF46C0FE01FF96608171814E
:101C30008281938120E03FEF4FE757E40E94190330
:101C4000181664F5FE01ED5BFF4F608171818281A2
:101C5000938120E030E040E251E40E941F02DC0169
:101C6000CB01BC01CD010E944900DC01CB019EAF3C
:101C70008DAF0FC088EC90E09CAF8BAF8BAD9CAD6F
:101C80000197F1F79CAF8BAF8DAD9EAD01979EAFE5
:101C90008DAF8DAD9EAD009769F716C0FE01FF9622
:101CA00060817181828193810E944900DC01CB01B6
:101CB0009EAF8DAF8DAD9EAD9AAF89AF89AD9AAD18
:101CC0000197F1F79AAF89AF809125028B7F8093BE
:101CD000250280912502886080932502809125024B
:101CE000806180932502809125020E94630C80E030
:101CF00090E0A0E8BFE38DAB9EABAFABB8AF6DA9F2
:101D00007EA98FA998AD20E030E04AEF54E40E940C
:101D10001F02DC01CB0189AB9AABABABBCAB69A9B1
:101D20007AA98BA99CA920E030E040E85FE30E94FB
:101D3000790388232CF481E090E098AB8FA73FC013
:101D400069A97AA98BA99CA920E03FEF4FE757E446
:101D50000E94190318164CF56DA97EA98FA998AD9C
:101D600020E030E040E251E40E941F02DC01CB01A0
:101D7000BC01CD010E944900DC01CB0198AB8FA7CB
:101D80000FC088EC90E09EA78DA78DA59EA501971A
:101D9000F1F79EA78DA78FA598A9019798AB8FA75C
:101DA0008FA598A9009769F714C069A97AA98BA98A
:101DB0009CA90E944900DC01CB0198AB8FA78FA59D
:101DC00098A99CA78BA78BA59CA50197F1F79CA729
:101DD0008BA7809124020E94630C80E090E0A0E831
:101DE000BFE38FA398A7A9A7BAA76FA178A589A5D4
:101DF0009AA520E030E04AEF54E40E941F02DC0183
:101E0000CB018BA39CA3ADA3BEA36BA17CA18DA191
:101E10009EA120E030E040E85FE30E947903882340
:101E20002CF481E090E09AA389A33FC06BA17CA130
:101E30008DA19EA120E03FEF4FE757E40E941903D8
:101E400018164CF56FA178A589A59AA520E030E079
:101E500040E251E40E941F02DC01CB01BC01CD0134
:101E60000E944900DC01CB019AA389A30FC088EC32
:101E700090E098A38F8F8F8D98A10197F1F798A389
:101E80008F8F89A19AA101979AA389A389A19AA169
:101E9000009769F714C06BA17CA18DA19EA10E943F
:101EA0004900DC01CB019AA389A389A19AA19E8F45
:101EB0008D8F8D8D9E8D0197F1F79E8F8D8F81E097
:101EC0000E94630C80E090E0A0E0B0E4898F9A8FDC
:101ED000AB8FBC8F698D7A8D8B8D9C8D20E030E02F
:101EE0004AEF54E40E941F02DC01CB018D8B9E8BD4
:101EF000AF8BB88F6D897E898F89988D20E030E017
:101F000040E85FE30E94790388232CF481E090E0AD
:101F10009C8B8B8B3FC06D897E898F89988D20E04B
:101F20003FEF4FE757E40E94190318164CF5698DEF
:101F30007A8D8B8D9C8D20E030E040E251E40E9450
:101F40001F02DC01CB01BC01CD010E944900DC0174
:101F5000CB019C8B8B8B0FC088EC90E09A8B898B8C
:101F600089899A890197F1F79A8B898B8B899C894A
:101F700001979C8B8B8B8B899C89009769F714C088
:101F80006D897E898F89988D0E944900DC01CB0183
:101F90009C8B8B8B8B899C89988B8F878F8598895D
:101FA0000197F1F7988B8F8786E00E94630C80E0A1
:101FB00090E0A0E0B0E48B879C87AD87BE876B85FF
:101FC0007C858D859E8520E030E04AEF54E40E94B8
:101FD0001F02DC01CB018F839887A987BA876F81A5
:101FE000788589859A8520E030E040E85FE30E94AB
:101FF000790388232CF481E090E09E838D833FC099
:102000006F81788589859A8520E03FEF4FE757E417
:102010000E94190318164CF56B857C858D859E856D
:1020200020E030E040E251E40E941F02DC01CB01DD
:10203000BC01CD010E944900DC01CB019E838D8350
:102040000FC088EC90E09C838B838B819C810197EF
:10205000F1F79C838B838D819E8101979E838D8375
:102060008D819E81009769F714C06F81788589857D
:102070009A850E944900DC01CB019E838D838D816E
:102080009E819A83898389819A810197F1F79A8346
:10209000898380E40E94630CFE01E85BFF4F10829D
:1020A00038C0FE01E95BFF4F108224C0FE01E85BEF
:1020B000FF4F8081482F50E0FE01E95BFF4F808198
:1020C000282F30E0CA01880F991F880F991F880FA9
:1020D000991F820F931FFC01EE5DFB4F80810E94D0
:1020E000110DDE01A95BBF4FFE01E95BFF4F80814F
:1020F0008F5F8C93FE01E95BFF4F80818830B0F2E7
:10210000DE01A85BBF4FFE01E85BFF4F80818F5F60
:102110008C93FE01E85BFF4F8081883010F280E8ED
:102120000E94630CC85BDF4F0FB6F894DEBF0FBE92
:10213000CDBFCF91DF911F910F910895DF93CF9382
:10214000CDB7DEB781E00E94630CCF91DF91089597
:10215000DF93CF93CDB7DEB782E00E94630CCF91BF
:10216000DF910895DF93CF9300D00F92CDB7DEB704
:1021700089838981282F30E03B832A838A819B8150
:102180008130910531F02A813B812230310529F0DF
:1021900007C080E80E94630C03C080EC0E94630CBF
:1021A0000F900F900F90CF91DF910895DF93CF9311
:1021B00000D000D0CDB7DEB789836A838981282F0C
:1021C00030E03C832B838B819C818130910531F001
:1021D0002B813C812230310531F009C08A81815840
:1021E0000E94630C04C08A8181540E94630C0F908A
:1021F0000F900F900F90CF91DF910895DF93CF93C1
:102200000F92CDB7DEB7898389818A3028F489811E
:10221000805D0E94110D03C089810E94110D0F90F5
:10222000CF91DF910895DF93CF9300D00F92CDB778
:10223000DEB79B838A8319820EC08981282F30E004
:102240008A819B81FC01E20FF31F80810E94FE10B6
:1022500089818F5F89838981282F30E08A819B81E2
:10226000FC01E20FF31F8081882339F70F900F9054
:102270000F90CF91DF910895DF93CF93CDB7DEB765
:102280008CE10E94630CCF91DF910895DF93CF938F
:10229000CDB7DEB788E10E94630CCF91DF9108953E
:1022A000DF93CF9300D0CDB7DEB78A83198206C003
:1022B00084E10E94630C89818F5F898399818A817F
:1022C0009817B0F30F900F90CF91DF910895DF939F
:1022D000CF9300D0CDB7DEB78A83198206C080E1E4
:1022E0000E94630C89818F5F898399818A81981705
:1022F000B0F30F900F90CF91DF910895DF93CF93BC
:102300000F92CDB7DEB789838981882331F480911C
:1023100024028D7F8093240205C080912402826074
:1023200080932402809124020E94630C0F90CF912D
:10233000DF910895DF93CF930F92CDB7DEB78983F6
:102340008981882331F4809124028E7F8093240236
:1023500005C0809124028160809324028091240230
:102360000E94630C0F90CF91DF910895DF93CF937C
:102370000F92CDB7DEB789838981882331F48091AC
:1023800024028B7F8093240205C080912402846004
:1023900080932402809124020E94630C0F90CF91BD
:1023A000DF910895DF93CF930F92CDB7DEB7898386
:1023B0008981883018F489810E94110D0F90CF9186
:1023C000DF910895DF93CF930F92CDB7DEB71982D7
:1023D00027C08981882F90E0FC01EA5DFD4F908144
:1023E00083E0692F41E00E940B098981882F90E0EA
:1023F000FC01E65DFD4F908183E0692F40E00E9483
:102400000B098981882F90E0FC01E65DFD4F9081EA
:1024100083E0692F41E00E94EB0989818F5F898306
:1024200089818430B0F20F90CF91DF910895DF93CE
:10243000CF9300D000D0CDB7DEB71B820FC08B8109
:10244000882F90E0FC01EA5DFD4F908183E0692FC9
:1024500041E00E94EB098B818F5F8B838B818430FD
:1024600070F31A8243C08A81882F90E0FC01EA5DF4
:10247000FD4F908183E0692F40E00E94EB091982B3
:1024800023C08981882F90E0FC01E65DFD4F90819B
:1024900083E0692F0E94EA0B882399F48981482FF1
:1024A00050E08A81282F30E0CA01880F991F880FD9
:1024B000991F820F931FFC01EE59FB4F80818C8383
:1024C0001BC089818F5F898389818430D0F28A81A2
:1024D000882F90E0FC01EA5DFD4F908183E0692F39
:1024E00041E00E94EB098A818F5F8A838A81843070
:1024F00008F4B9CF8FE38C838C810F900F900F90ED
:102500000F90CF91DF910895DF93CF930F92CDB7C6
:10251000DEB7898389816FEF0E94EB0A0F90CF911C
:10252000DF910895DF93CF9300D0CDB7DEB78983D5
:102530006A838A81882F90E0FC01EE58FB4F9081DE
:102540008981692F0E942C0B0F900F90CF91DF9102
:102550000895DF93CF93CDB7DEB70E947F060E9428
:10256000A3050E94A40684EF93E10E94360680E052
:102570000E94C0062CEF35E180E0B9010E945308AB
:1025800080E690E00E940B060E94C712FFCFDF9307
:10259000CF93CDB7DEB7E6970FB6F894DEBF0FBE88
:1025A000CDBF0E94B2068EE890E00E940B061C820E
:1025B0001B828FE38A831CC00E94FC058A838A8168
:1025C0008931B0F08A81893C98F48A818B3381F01B
:1025D0008C81282F30E0CE010596FC01E20FF31F1D
:1025E0008A8180838C818F5F8C838A810E94E2053F
:1025F0008A818B3309F78C81282F30E0CE01059634
:10260000FC01E20FF31F108286EA90E00E940B06A5
:102610008AEB90E00E940B068FE38A831CC00E9425
:10262000FC058A838A818931B0F08A81893C98F4DB
:102630008A818B3381F08B81282F30E0CE014E963A
:10264000FC01E20FF31F8A8180838B818F5F8B8374
:102650008A810E94E2058A818B3309F78B81282FBA
:1026600030E0CE014E96FC01E20FF31F108282EDA6
:1026700090E00E940B06CE0105969E01225E3F4F20
:10268000B9010E94831389838981813069F5109291
:1026900085040E94A40686EE90E00E940B06CE01FF
:1026A00005960E940B0681EF90E00E940B0684E1E4
:1026B00091E00E940B0683E391E00E940B068CE4FC
:1026C00091E00E940B0686E691E00E940B0682E8EC
:1026D00091E00E940B068FE991E00E940B0684E1D5
:1026E00091E00E940B0606C08AEB91E00E940B0667
:1026F0000E94C712E6960FB6F894DEBF0FBECDBF9C
:10270000CF91DF910895DF93CF93CDB7DEB72B97AD
:102710000FB6F894DEBF0FBECDBF98878F837A8740
:102720006987809185048F5F8093850480918504FB
:10273000833008F046C01E821D823BC02D813E8141
:1027400082E390E0AC01249FC001259F900D349F4F
:10275000900D1124825D9D4F2F813885B9010E9413
:1027600042169C838B832D813E8182E390E0AC01F5
:10277000249FC001259F900D349F900D11244996F0
:10278000825D9D4F29853A85B9010E9442169A8340
:1027900089838B819C81009739F489819A81009784
:1027A00019F451E05B8716C08D819E8101969E834E
:1027B0008D838D819E818A3091050CF4BFCF1B865D
:1027C00009C08AEC91E00E940B060E9464151092E9
:1027D00085041B868B852B960FB6F894DEBF0FBE43
:1027E000CDBFCF91DF910895DF93CF93CDB7DEB703
:1027F0006D970FB6F894DEBF0FBECDBF0E94FC05EB
:102800008D8F8D8D803308F456C18D8D893C08F0F5
:1028100052C180918604882309F04DC18D8D8E367A
:10282000A1F489ED91E00E940B0681E061E041E0B6
:102830000E94EB0981E062E041E00E94EB0981E047
:1028400063E041E00E94EB0936C18D8D8636A1F42C
:1028500081EE91E00E940B0681E061E040E00E9481
:10286000EB0981E062E040E00E94EB0981E063E077
:1028700040E00E94EB091FC18D8D823709F086C0B0
:102880008AEE91E00E940B0681E064E040E00E9445
:10289000EB0981E065E041E00E94EB0980E090E413
:1028A000ACE1B5E4898F9A8FAB8FBC8F698D7A8D3F
:1028B0008B8D9C8D20E030E04AEF54E40E941F0293
:1028C000DC01CB018D8B9E8BAF8BB88F6D897E89A0
:1028D0008F89988D20E030E040E85FE30E94790323
:1028E00088232CF481E090E09C8B8B8B3FC06D891A
:1028F0007E898F89988D20E03FEF4FE757E40E9453
:10290000190318164CF5698D7A8D8B8D9C8D20E0FE
:1029100030E040E251E40E941F02DC01CB01BC0127
:10292000CD010E944900DC01CB019C8B8B8B0FC039
:1029300088EC90E09A8B898B89899A890197F1F7C5
:102940009A8B898B8B899C8901979C8B8B8B8B892C
:102950009C89009769F714C06D897E898F89988D4D
:102960000E944900DC01CB019C8B8B8B8B899C895D
:10297000988B8F878F8598890197F1F7988B8F8730
:1029800081E065E040E00E94EB0995C08D8D8C36BA
:1029900009F086C088EF91E00E940B0681E064E0B8
:1029A00041E00E94EB0981E065E040E00E94EB0914
:1029B00080E090E4ACE1B5E48B879C87AD87BE876F
:1029C0006B857C858D859E8520E030E04AEF54E460
:1029D0000E941F02DC01CB018F839887A987BA87E9
:1029E0006F81788589859A8520E030E040E85FE353
:1029F0000E94790388232CF481E090E09E838D83EC
:102A00003FC06F81788589859A8520E03FEF4FE749
:102A100057E40E94190318164CF56B857C858D854B
:102A20009E8520E030E040E251E40E941F02DC017C
:102A3000CB01BC01CD010E944900DC01CB019E838A
:102A40008D830FC088EC90E09C838B838B819C816D
:102A50000197F1F79C838B838D819E8101979E83E3
:102A60008D838D819E81009769F714C06F81788571
:102A700089859A850E944900DC01CB019E838D8364
:102A80008D819E819A83898389819A810197F1F74B
:102A90009A83898381E064E040E00E94EB090BC0E7
:102AA0008D8D8F3641F486E092E00E940B061092E5
:102AB00085040E94C7126D960FB6F894DEBF0FBE54
:102AC000CDBFCF91DF910895DF93CF93CDB7DEB720
:102AD0002E970FB6F894DEBF0FBECDBF0E94A4069E
:102AE00079C081E060E00E946D0B80E090E0AAEF89
:102AF000B3E48B879C87AD87BE876B857C858D858E
:102B00009E8520E030E04AEF54E40E941F02DC0181
:102B1000CB018F839887A987BA876F81788589854C
:102B20009A8520E030E040E85FE30E947903882343
:102B30002CF481E090E09E838D833FC06F81788587
:102B400089859A8520E03FEF4FE757E40E941903FB
:102B500018164CF56B857C858D859E8520E030E0D0
:102B600040E251E40E941F02DC01CB01BC01CD0117
:102B70000E944900DC01CB019E838D830FC088EC4D
:102B800090E09C838B838B819C810197F1F79C83E0
:102B90008B838D819E8101979E838D838D819E8104
:102BA000009769F714C06F81788589859A850E949E
:102BB0004900DC01CB019E838D838D819E819A83A8
:102BC000898389819A810197F1F79A83898381E0CA
:102BD0008093860480918404882309F482CF109224
:102BE0008404109286042E960FB6F894DEBF0FBEB2
:102BF000CDBFCF91DF910895DF93CF93CDB7DEB7EF
:102C000081E060E040E00E94EB0981E08093840471
:102C1000CF91DF9108952F923F924F925F926F92E2
:102C20007F928F929F92AF92BF92CF92DF92EF925C
:102C3000FF920F931F93CF93DF93CDB7DEB7CA1BDD
:102C4000DB0B0FB6F894DEBF0FBECDBF09942A8808
:102C5000398848885F846E847D848C849B84AA84B0
:102C6000B984C884DF80EE80FD800C811B81AA813D
:102C7000B981CE0FD11D0FB6F894DEBF0FBECDBF08
:102C8000ED010895FB01DC018D9101908019011087
:0A2C9000D9F3990B0895F894FFCFD3
:102C9A003D3D3D3D3D3D2057656C636F6D65206947
:102CAA006E20596F757220536D61727420486F6D72
:102CBA006520417070203D3D3D3D3D3D0A00506C10
:102CCA006561736520456E74657220796F7572202F
:102CDA004E616D650A000A4E616D65207761732049
:102CEA00456E7465726564200A00506C656173658F
:102CFA0020456E74657220796F7572205061737306
:102D0A000A000A506173732077617320456E7465F7
:102D1A00726564200A000A2057656C636F6D65202E
:102D2A0000202C20596F752063616E206E6F77200A
:102D3A00636F6E74726F6C20796F757220526F6F49
:102D4A006D200A003D3D3D3D3D3D3D3D3D3D3D3D06
:102D5A003D3D3D3D3D3D3D3D3D3D3D3D3D3D3D3D99
:102D6A003D0A00507265737320276E27203D3D3E51
:102D7A0020546F204C6564204F6E0A0050726573B0
:102D8A007320276627203D3D3E20546F204C656402
:102D9A00204F66660A0050726573732027722720D7
:102DAA003D3D3E20546F204F70656E20446F6F7218
:102DBA000A00507265737320276C27203D3D3E2020
:102DCA00546F20436C6F736520446F6F720A005012
:102DDA007265737320273027203D3D3E20546F20B3
:102DEA005369676E204F75740A004C6F6720696ECD
:102DFA00204661696C65640A0A0042757A7A6572CE
:102E0A0020736F756E64200A004C4544204F4E0AA9
:102E1A00004C4544204F46460A004F70656E696E65
:102E2A006720646F6F720A00636C6F73696E672044
:102E3A00646F6F720A004C6F67206F757420537548
:102E4A00636365737366756C6C790A000000000031
:102E5A00000000000F28030201000405060768614C
:102E6A007373616E2073617965640000000000006D
:102E7A00000000000000003931333100000000007A
:102E8A000000000000000000000000000000000038
:102E9A006D617269616D206D61676479000000007F
:102EAA000000000000000000003734343100000048
:102EBA000000000000000000000000000000000008
:102ECA0000006D617269616D206661726F756B00D9
:102EDA000000000000000000000000373437310015
:102EEA0000000000000000000000000000000000D8
:102EFA0000000000616D7220616C69000000000032
:102F0A000000000000000000000000000031323321
:102F1A003400000000000000000000000000000073
:102F2A000000000000006D6F6E6120736161640033
:102F3A000000000000000000000000000000003156
:102F4A0032333400000000000000000000000000DE
:102F5A00000000000000000061686D656420616C7B
:102F6A0069000000000000000000000000000000EE
:102F7A00003132333400000000000000000000007D
:102F8A00000000000000000000006B68616C6564CE
:102F9A0020616C69000000000000000000000000D1
:102FAA00000000313233340000000000000000004D
:102FBA000000000000000000000000006E61646173
:102FCA002061686D656400000000000000000000D8
:102FDA00000000000031323334000000000000001D
:102FEA000000000000000000000000000000616C0A
:102FFA00692061686D65640000000000000000003F
:10300A0000000000000000313233340000000000EC
:10301A0000000000000000000000000000000000A6
:10302A0074616D6572206D6F6873656E00000000D3
:10303A0000000000000000000031323334000000BC
:10304A000000000000000000000000000000000076
:10305A000000000A1F1F0E040000040E15150404C8
:10306A0000000E1F1F1F000E000000040E1F0E049A
:10307A000000040E1F1B11000000111B0E040E1B82
:10308A0011001F15151F15151F000E1D191F0E0003
:10309A001F0031323334353637383930392A633004
:0C30AA003D2F3F065B4F666DFD077F6FFA
:00000001FF
